:020000040800F2
:1000000000C000202502000845040008470400083D
:10001000490400084B0400084D04000800000000DB
:100020000000000000000000000000004F04000875
:1000300051040008000000005304000855040008A3
:100040006D0200086D0200086D0200086D020008D4
:100050006D0200086D0200086D0200086D020008C4
:100060006D0200086D0200086D0200086D020008B4
:100070006D0200086D0200086D0200086D020008A4
:100080006D0200086D0200086D0200086D02000894
:100090006D0200086D0200086D0200086D02000884
:1000A0006D020008590400086D0200086D02000886
:1000B0006D0200086D0200086D0200086D02000864
:1000C0006D0200086D0200086D0200086D02000854
:1000D0006D020008690400086D0200086D02000846
:1000E0006D0200086D0200086D0200086D02000834
:1000F0006D0200086D0200086D0200086D02000824
:100100006D0200086D0200086D0200086D02000813
:100110006D0200086D0200086D0200086D02000803
:100120006D0200086D0200086D0200086D020008F3
:1001300000000000000000000000000000000000BF
:1001400000000000000000000000000000000000AF
:10015000000000000000000000000000000000009F
:10016000000000000000000000000000000000008F
:10017000000000000000000000000000000000007F
:10018000000000000000000000000000000000006F
:10019000000000000000000000000000000000005F
:1001A000000000000000000000000000000000004F
:1001B000000000000000000000000000000000003F
:1001C000000000000000000000000000000000002F
:1001D000000000000000000000000000000000001F
:0401E0005FF8E0F1F3
:1001E40010B5054C237833B9044B13B10448AFF36D
:1001F40000800123237010BD3C0400200000000097
:10020400381B000808B5034B1BB103490348AFF37F
:10021400008008BD0000000040040020381B0008D6
:1002240000F028F90B480C490C4A002302E0D4588A
:10023400C4500433C4188C42F9D3094A094C00232E
:1002440001E013600432A242FBD301F08DFB00F005
:100254007CF87047000000203C0400208C1B000840
:100264003C040020F0040020FEE7000010B586B036
:1002740000220292039204920592134B996941F071
:1002840020019961996901F020010091009999690F
:1002940041F0040199619B6903F004030193019BFC
:1002A4000A4C4FF48071204600F0D0FB4FF4807369
:1002B40002930123039304930323059302A9204685
:1002C40000F0A4FA06B010BD00100240000801407E
:1002D40008B50268034B9A4200D008BD00F03EF90D
:1002E400FBE700BF002C014072B6FEE700B591B0F9
:1002F4002822002106A801F05BFB0023019302934E
:100304000393049305930223069301220A92102275
:100314000B920D934FF450130F9306A800F0B2FB09
:1003240078B90F23019302210291802303930023C0
:100334000493059301A800F0D7FD20B911B05DF82E
:1003440004FBFFF7D1FFFFF7CFFF08B500F0F4F887
:10035400FFF7CCFFFFF78AFF00F08EF801F0E0FA18
:1003640001F0E8FAFCE7000082B00E4B9A6942F013
:1003740001029A619A6902F001020092009ADA6914
:1003840042F08052DA61DB6903F080530193019BF0
:10039400054A536823F0E06343F00073536002B0EE
:1003A400704700BF001002400000014030B589B022
:1003B40004461E4B9A6942F400629A619B6903F4F5
:1003C40000630193019B02A903A800F069FE00F0F9
:1003D40057FE03461648A0FB03239B0C013B15481C
:1003E400154A026040F2E732C260436000230361B1
:1003F4008360836100F0BEFF054610B1284609B052
:1004040030BD0C4800F06CFE05460028F6D11920DA
:1004140000F014F90F2C01D90125EFE70022214641
:10042400192000F0D3F8054B1C60E7E700100240E8
:1004340083DE1B4358040020002C014008000020E8
:10044400FEE7FEE7FEE7FEE7FEE77047704770470A
:100454007047000008B5024800F082FE08BD00BFE6
:100464005804002008B5024801F016F908BD00BF81
:10047400A00400207047000008B50A480A4B036036
:100484004FF4E133436000238360C36003610C22B3
:1004940042618361C36101F043F800B908BDFFF70D
:1004A40023FFFBE7A00400200038014030B587B0EB
:1004B4000023029303930493059302681C4B9A420E
:1004C40001D007B030BD03F558439A6942F4804225
:1004D4009A619A6902F480420092009A9A6942F001
:1004E40004029A619B6903F004030193019B4FF496
:1004F4000073029302230393032305930D4D02A972
:10050400284600F083F94FF4806302930024039497
:100514000123049302A9284600F078F922462146D3
:10052400252000F053F8252000F088F8C9E700BF23
:10053400003801400008014008B5074A136843F039
:1005440010031360032000F02FF80F20FFF72EFF95
:10055400FFF70AFF002008BD00200240034A11688B
:10056400034B1B780B441360704700BFE804002062
:1005740004000020014B1868704700BFE804002005
:1005840038B50446FFF7F6FF0546B4F1FF3F02D045
:10059400044B1B781C44FFF7EDFF401BA042FAD329
:1005A40038BD00BF04000020074AD36823F4E06389
:1005B4001B041B0C000200F4E060034343F0BF6320
:1005C40043F40033D360704700ED00E000B5194BED
:1005D400DB68C3F30223C3F1070CBCF1040F28BF8B
:1005E4004FF0040C03F1040EBEF1060F18D9033BBF
:1005F4004FF0FF3E0EFA0CFC21EA0C0199400EFA72
:1006040003F322EA0303194300280BDB0901C9B2EF
:1006140000F1604000F5614080F800135DF804FBD0
:100624000023E5E700F00F000901C9B2024B195499
:10063400F4E700BF00ED00E014ED00E0002807DB64
:1006440000F01F02400901239340024A42F820307F
:10065400704700BF00E100E090F82130DBB2022BCC
:1006640006D004238363002380F8203001207047E0
:100674000268136823F00E0313600268136823F002
:1006840001031360036CC16B012202FA03F34B6094
:1006940080F82120002380F820301846704700009D
:1006A40008B590F82130DBB2022B03D00423836316
:1006B400012008BD0268136823F00E03136002686A
:1006C400136823F00103136003684C4A93424ED924
:1006D400783A934224D01432934230D01432934265
:1006E4002FD0143293422FD0143293422FD014328D
:1006F40093422FD0143293422FD002F56272934268
:100704002ED0143293422DD0143293422CD0143272
:10071400934202D04FF4803203E04FF4805200E061
:100724000122374B5A60012380F82130002380F8DE
:100734002030436B002B5ED098470020B9E710228D
:10074400EFE74FF48072ECE74FF48052E9E74FF49F
:100754008032E6E74FF48012E3E74FF08072E0E77F
:100764000122DEE71022DCE74FF48072D9E7254A44
:10077400934224D01432934225D01432934224D08D
:100784001432934224D01432934224D0143293422C
:1007940024D01432934224D002F56272934223D0BF
:1007A4001432934222D01432934221D01432934211
:1007B40002D04FF4803203E04FF4805200E0012273
:1007C400114B5A60AFE71022FAE74FF48072F7E753
:1007D4004FF48052F4E74FF48032F1E74FF4801283
:1007E400EEE74FF08072EBE70122E9E71022E7E73A
:1007F4004FF48072E4E700205BE700BF8000024012
:1008040000040240080002400000024070B582B0BB
:100814000024A446B0E0874DAA4210D007D9864DE3
:10082400AA420CD005F58035AA4208D013E0A5F5FC
:100834008015AA4203D005F57025AA4207D18A681B
:10084400002A62D0012A5BD04361082403E0A5F5A5
:100854008015AA42F3D0BEF1FF0F58D80646BEF168
:10086400FF0F56D84FEA8C0233680F25954023EAD0
:10087400050304FA02F2134333604B6813F0805FFC
:1008840078D06E4B9A6942F001029A619B6903F039
:1008940001030193019B4FEA9C02951C684B53F89A
:1008A40025600CF003039D000F23AB4026EA0306EA
:1008B400644B984233D003F58063984200F09880EB
:1008C40003F58063984200F0958003F580639842B5
:1008D40000F0928003F58063984200F08F8003F566
:1008E4008063984219D006231AE0CC68B3E7CC6839
:1008F4000434B0E7CC680834ADE7CC680C34AAE71C
:1009040003610824A7E70024A5E70424A3E7061D40
:10091400A5E7ACF108029200A6E7052300E0002356
:10092400AB4033430232464D45F822304B6813F452
:10093400801F65D0444A936843EA0E0393604B6872
:1009440013F4001F62D0404AD36843EA0E03D36015
:100954004B6813F4003F5FD03B4A536843EA0E03ED
:1009640053604B6813F4803F5CD0374A136843EA02
:100974000E0313600CF1010C0A6832FA0CF357D021
:10098400012303FA0CF302EA030E33EA0202F1D163
:100994004A68122A3FF63FAF122A3FF65CAF01A520
:1009A40055F822F043080008EF080008F908000889
:1009B4000B0900085B0800085B0800085B080008D6
:1009C4005B0800085B0800085B0800085B08000877
:1009D4005B0800085B0800085B0800085B08000867
:1009E4005B0800085B080008F3080008FF0800081B
:1009F400012395E7022393E7032391E704238FE779
:100A0400114A936823EA0E03936098E70E4AD36869
:100A140023EA0E03D3609BE70B4A536823EA0E03D1
:100A240053609EE7084A136823EA0E031360A1E7A4
:100A340002B070BD0000221000003110001002400E
:100A44000000014000080140000401400AB10161B6
:100A5400704709040161704782B0084B1B68084A5B
:100A6400A2FB03235B0A00FB03F3019300BF019B7A
:100A74005A1E0192002BF9D102B0704700000020E9
:100A8400D34D6210002800F0F18170B582B00446A5
:100A9400036813F0010F2CD0994B5B6803F00C032F
:100AA400042B1DD0964B5B6803F00C03082B12D06B
:100AB4006368B3F5803F41D0002B55D103F18043E7
:100AC40003F504331A6822F480321A601A6822F497
:100AD40080221A6037E08A4B5B6813F4803FE7D0CA
:100AE400874B1B6813F4003F03D06368002B00F0AE
:100AF400BF81236813F0020F75D0814B5B6813F03C
:100B04000C0F5FD07E4B5B6803F00C03082B54D0B2
:100B14002369002B00F08A807A4B01221A60FFF7C8
:100B240029FD0546764B1B6813F0020F75D1FFF7BC
:100B340021FD401B0228F5D903209EE1704A136869
:100B440043F480331360636843B3FFF713FD054632
:100B54006B4B1B6813F4003FCBD1FFF70BFD401B1D
:100B64006428F5D9032088E1B3F5A02F09D0644B9C
:100B74001A6822F480321A601A6822F480221A60F9
:100B8400E1E703F18043A3F53C331A6842F4802281
:100B94001A601A6842F480321A60D4E7FFF7EAFC5C
:100BA4000546574B1B6813F4003FA2D0FFF7E2FC45
:100BB400401B6428F5D903205FE1514B5B6813F4B3
:100BC400803FA5D14E4B1B6813F0020F03D023695D
:100BD400012B40F04F814A4A136823F0F8036169FE
:100BE40043EAC1031360236813F0080F33D0A369E9
:100BF400002B5CD0434B0122C3F88024FFF7BAFCDE
:100C040005463F4B5B6A13F0020F21D1FFF7B2FC9C
:100C1400401B0228F5D903202FE1394A136823F039
:100C2400F803616943EAC1031360DCE7354B002232
:100C34001A60FFF79FFC0546314B1B6813F0020F47
:100C4400D1D0FFF797FC401B0228F5D9032014E10B
:100C54000120FFF701FF236813F0040F00F09680D2
:100C6400274BDB6913F0805F34D1254BDA6942F0FE
:100C74008052DA61DB6903F080530193019B012503
:100C8400214B1B6813F4807F26D0E368012B3DD0F1
:100C9400002B53D103F1804303F504331A6A22F085
:100CA40001021A621A6A22F004021A6233E0154B36
:100CB4000022C3F88024FFF75DFC0546104B5B6AF5
:100CC40013F0020FC7D0FFF755FC401B0228F5D9DB
:100CD4000320D2E00025D3E70B4A136843F4807362
:100CE4001360FFF747FC0646074B1B6813F4807F2D
:100CF400CBD1FFF73FFC801B6428F5D90320BCE06F
:100D04000010024000004242007000405F4A136A33
:100D140043F001031362E36833B3FFF72BFC064689
:100D24005A4B1B6A13F0020F2FD1FFF723FC801BD1
:100D340041F288339842F3D903209EE0052B09D071
:100D4400524B1A6A22F001021A621A6A22F0040251
:100D54001A62E0E74D4B1A6A42F004021A621A6AF8
:100D640042F001021A62D6E7FFF704FC0646474B3D
:100D74001B6A13F0020F08D0FFF7FCFB801B41F243
:100D840088339842F3D9032077E0E5B9E369002B6F
:100D940072D03E4A526802F00C02082A56D0022B46
:100DA40017D03B4B00221A66FFF7E4FB0446374B8F
:100DB4001B6813F0007F47D0FFF7DCFB001B022801
:100DC400F5D9032059E0314AD36923F08053D36124
:100DD400DCE72F4B00221A66FFF7CCFB05462B4BB2
:100DE4001B6813F0007F06D0FFF7C4FB401B0228EA
:100DF400F5D9032041E0236AB3F5803F1AD0234993
:100E04004B6823F47413226A606A024313434B60F1
:100E14001F4B01221A66FFF7ADFB04461B4B1B68F0
:100E240013F0007F0ED1FFF7A5FB001B0228F5D9B4
:100E3400032022E0154A536823F40033A1680B43CE
:100E44005360DCE7002018E0002016E0012B16D0E8
:100E54000E4B5B6803F48031226A914211D103F492
:100E64007013626A93420ED1002006E0012070479D
:100E7400012002E0012000E0002002B070BD01204A
:100E8400FBE70120F9E70120F7E700BF001002406B
:100E9400000042420F4B5B6803F00C02082A01D0A9
:100EA4000D487047C3F383420C49885C13F4803FB8
:100EB4000BD0084B5B68C3F34043094AD35C064A32
:100EC40002FB00F0B0FBF3F07047064B03FB00F0AD
:100ED400704700BF0010024000127A00681B00082F
:100EE400781B000800093D00002800F0A08070B5C0
:100EF4000D460446524B1B6803F007038B420BD28A
:100F04004F4A136823F007030B431360136803F07D
:100F140007038B4240F08D80236813F0020F17D033
:100F240013F0040F04D0474A536843F4E06353605A
:100F3400236813F0080F04D0424A536843F4605303
:100F44005360404A536823F0F003A1680B43536095
:100F5400236813F0010F31D06368012B20D0022BDA
:100F640025D0384A126812F0020F64D035494A6815
:100F740022F0030213434B60FFF7FCFA0646314BA1
:100F84005B6803F00C036268B3EB820F16D0FFF7C3
:100F9400F1FA801B41F288339842F0D9032045E0EE
:100FA400284A126812F4003FE0D101203EE0254AAD
:100FB400126812F0007FD9D1012037E0204B1B6862
:100FC40003F00703AB420AD91D4A136823F0070351
:100FD4002B431360136803F00703AB422DD123683E
:100FE40013F0040F06D0174A536823F4E063E16852
:100FF4000B435360236813F0080F07D0114A53685A
:1010040023F46053216943EAC1035360FFF742FFAD
:101014000C4B5B68C3F303130B4AD35CD8400B4BF4
:1010240018600B4B1868FFF7C1F9002070BD012050
:1010340070470120FAE70120F8E70120F6E700BF36
:101044000020024000100240501B00080000002055
:1010540008000020014B1868704700BF0000002002
:1010640008B5FFF7F7FF044B5B68C3F30223034A99
:10107400D35CD84008BD00BF00100240601B0008CC
:1010840008B5FFF7E7FF044B5B68C3F3C223034AC9
:10109400D35CD84008BD00BF00100240601B0008AC
:1010A4000F2303600B4B5A6802F0030242605A6834
:1010B40002F0F00282605A6802F4E062C2605B6887
:1010C400DB0803F4E0630361034B1B6803F00703CD
:1010D4000B6070470010024000200240704700007F
:1010E40090F83D30DBB2012B2FD1022380F83D3044
:1010F4000268D36843F00103D3600368154A93423E
:1011040018D002F50062934214D0B3F1804F11D08D
:10111400A2F5983293420DD002F58062934209D031
:1011240002F58062934205D01A6842F001021A6007
:10113400002070479A6802F00702062A07D01A684E
:1011440042F001021A60002070470120704700201D
:10115400704700BF002C01407047704770477047CC
:1011640010B5044603681A6912F0020F11D0DA6848
:1011740012F0020F0DD06FF002021A6101230377FF
:1011840003689B6913F0030F70D0FFF7E6FF002399
:10119400237723681A6912F0040F12D0DA6812F068
:1011A400040F0ED06FF004021A6102232377236820
:1011B4009B6913F4407F5FD02046FFF7CEFF0023E6
:1011C400237723681A6912F0080F12D0DA6812F034
:1011D400080F0ED06FF008021A61042323772368E6
:1011E400DB6913F0030F4ED02046FFF7B6FF002350
:1011F400237723681A6912F0100F12D0DA6812F0FC
:10120400100F0ED06FF010021A61082323772368A1
:10121400DB6913F4407F3DD02046FFF79EFF002397
:10122400237723681A6912F0010F03D0DA6812F0E9
:10123400010F36D123681A6912F0800F03D0DA68DF
:1012440012F0800F34D123681A6912F0400F03D0D2
:10125400DA6812F0400F32D123681A6912F0200FB5
:1012640003D0DA6812F0200F30D110BDFFF774FFFD
:101274002046FFF773FF8AE72046FFF76DFF2046FD
:10128400FFF76CFF9BE72046FFF766FF2046FFF75A
:1012940065FFACE72046FFF75FFF2046FFF75EFFE0
:1012A400BDE76FF001021A612046FFF711F8C1E7AC
:1012B4006FF080021A61204600F089F8C3E76FF0EE
:1012C40040021A612046FFF74AFFC5E76FF020028B
:1012D4001A61204600F07AF8C7E700000368244A40
:1012E400904212D002F5006290420ED0B0F1804FCD
:1012F4000BD0A2F59832904207D002F5806290425A
:1013040003D002F58062904203D123F070034A684F
:101314001343174A904212D002F5006290420ED055
:10132400B0F1804F0BD0A2F59832904207D002F56D
:101334008062904203D002F58062904203D123F48C
:101344004073CA68134323F080034A69134303605C
:101354008B68C3620B688362054B984203D003F524
:101364000063984201D10B69036301234361704711
:10137400002C014040B310B5044690F83D30F3B161
:10138400022384F83D30214651F8040BFFF7A6FFF1
:10139400012384F8463084F83E3084F83F3084F8E2
:1013A400403084F8413084F8423084F8433084F883
:1013B400443084F8453084F83D30002010BD80F876
:1013C4003C30FFF78BFEDBE7012070477047704726
:1013D400026802F10C0353E8003F23F490730C32CB
:1013E40042E800310029F3D1026802F1140353E802
:1013F400003F23F00103143242E800310029F3D105
:10140400036B012B05D0202380F8423000230363B3
:101414007047026802F10C0353E8003F23F0100305
:101424000C3242E800310029F3D1ECE790F8413066
:10143400DBB2212B01D0022070478368B3F5805FB3
:1014440017D0036A5A1C02621A7803685A60C38C64
:101454009BB2013B9BB2C3844BB90268D36823F0AF
:101464008003D3600268D36843F04003D360002054
:1014740070470369002BE4D1036A1B880268C3F335
:1014840008035360036A02330362E0E710B50446BD
:101494000268136923F44053C1680B4313618368E2
:1014A4000269134342691A430168CB6823F4B053B9
:1014B40023F00C031343CB600268536923F4407395
:1014C40081690B4353610268134B9A4220D0FFF7A2
:1014D400C7FD024602EB820202EB820263689B00B4
:1014E400B2FBF3F20D48A0FB02314909642303FB6C
:1014F40011231B013233A0FB03235B0903F0F00229
:1015040002EB011203F00F03216813448B6010BD3A
:10151400FFF7B6FD0246DDE7003801401F85EB51B9
:1015240060B310B5044690F8413013B3242384F813
:1015340041302268D36823F40053D3602046FFF778
:10154400A5FF2268136923F4904313612268536949
:1015540023F02A0353612268D36843F40053D36011
:1015640000206064202384F8413084F842306063B2
:1015740010BD80F84030FEF799FFD7E7012070478F
:10158400704708B50168CA6822F04002CA60202288
:1015940080F84120FFF7F4FF002008BD7047704732
:1015A40008B5406A0023C385C384FFF7F8FF08BD6C
:1015B400704790F84230DBB2222B69D18368B3F5CF
:1015C400805F4FD0826AB3F5805F04D0002B56D180
:1015D4000369002B53D103685B681370836A01337A
:1015E4008362C38D9BB2013B9BB2C385002B51D157
:1015F40000B583B00268D36823F02003D360026887
:10160400D36823F48073D3600268536923F0010321
:101614005361202380F8423000234363036B012B82
:1016240033D100230363026802F10C0353E8003F43
:1016340023F010030C3242E800310029F3D103688F
:101644001A6812F0100F06D0002201921A68019253
:101654005B680193019B818DFFF7AAFF002003B013
:101664005DF804FB0269002AACD1826A03685B68F6
:10167400C3F308031380836A02338362B1E7036808
:101684005B6803F07F031370A8E7FFF787FFE5E7C4
:10169400022070470020704730B583B004460268CA
:1016A4001368D068516913F00F0505D113F0200FAA
:1016B40002D010F0200F19D12DB111F0010119D170
:1016C40010F4907F16D1216B01297DD013F0800F87
:1016D40003D010F0800F40F0188113F0400F03D0B6
:1016E40010F0400F40F0158103B030BD2046FFF7E5
:1016F40060FFF9E713F0010F06D010F4807F03D0E8
:10170400626C42F00102626413F0040F04D019B158
:10171400626C42F00202626413F0020F04D019B149
:10172400626C42F00402626413F0080F07D010F0F8
:10173400200F00D119B1626C42F008026264626C3D
:10174400002AD1D013F0200F02D010F0200F29D19D
:1017540023685B6903F04003626C12F0080F00D148
:1017640063B32046FFF734FE23685B6913F0400F30
:1017740020D0226802F1140353E8003F23F0400311
:10178400143242E800310029F3D1E36B73B1634AA8
:101794005A63E06BFEF784FF0028A5D0E06B436B2F
:1017A4009847A1E72046FFF704FFD1E72046FFF75B
:1017B400F6FE99E72046FFF7F2FE95E72046FFF78D
:1017C400EEFE002363648FE713F0100F3FF47EAF47
:1017D40010F0100F3FF47AAF0023019313680193C4
:1017E40053680193019B536913F0400F51D0E26B8E
:1017F40013685B689BB2002B3FF476AFA18D9942CE
:101804007FF672AFE3859369202B37D0226802F10B
:101814000C0353E8003F23F480730C3242E8003198
:101824000029F3D1226802F1140353E8003F23F0A6
:101834000103143242E800310029F3D1226802F195
:10184400140353E8003F23F04003143242E800310C
:101854000029F3D1202384F8423000232363226833
:1018640002F10C0353E8003F23F010030C3242E86A
:1018740000310029F3D1E06BFEF7EEFE022363632F
:10188400A18DE38D9BB2C91A89B22046FFF790FE61
:101894002AE7A18DE38D9BB2C91A89B2E38D9BB26D
:1018A400002B3FF421AF00293FF41EAF226802F160
:1018B4000C0353E8003F23F490730C3242E80030E9
:1018C4000028F3D1226802F1140353E8003F23F007
:1018D4000103143242E800300028F3D1202384F8B5
:1018E400423000232363226802F10C0353E8003FD3
:1018F40023F010030C3242E800300028F3D1022315
:1019040063632046FFF754FEEEE62046FFF78EFDA4
:10191400EAE62046FFF735FEE6E600BFA515000817
:1019240008B500224FF480710148FFF78FF808BD15
:101934000008014010B50B4C00224FF48071204682
:10194400FFF784F84FF49670FEF71AFE01224FF465
:1019540080712046FFF77AF84FF49670FEF710FE78
:1019640010BD00BF0008014070B50D4E0D4D761B33
:10197400B61006D0002455F8043B01349847A6421B
:10198400F9D1094E094D00F0D5F8761BB61006D0F2
:10199400002455F8043B01349847A642F9D170BDA0
:1019A400801B0008801B0008881B0008801B00089F
:1019B400830730B548D0541E002A3FD00346CAB22C
:1019C40001E0013C3AD303F8012B9D07F9D1032C24
:1019D4002DD9CDB245EA05250F2C45EA054536D962
:1019E400A4F1100222F00F0C03F1200EE6444FEA9A
:1019F400121C03F1100242E9045542E90255103267
:101A04007245F8D10CF1010214F00C0F03EB021231
:101A140004F00F0C13D0ACF1040323F003030433DC
:101A2400134442F8045B9342FBD10CF003042CB141
:101A3400CAB21C4403F8012B9C42FBD130BD64465E
:101A44001346002CF4D1F9E703461446BFE71A46BF
:101A5400A446E0E7024B13B1024800F005B8704712
:101A640000000000791A0008002301461A461846AF
:101A740000F01AB838B5084B084D5B1B9C1007D012
:101A8400043B1D44013C55F804399847002CF9D116
:101A9400BDE8384000F054B88C1B0008881B0008CF
:101AA400704700BF704700BF2DE9F047DFF87CA006
:101AB4000646DAF8000098460F469146FFF7F0FF15
:101AC4001B4B1B68D3F8484124B365681F2D26DCE3
:101AD4005EB96B1C0235DAF80000636044F82570C7
:101AE400FFF7E0FF0020BDE8F087012304EB850148
:101AF400C1F88890D4F88821AB401A43022EC4F868
:101B04008821C1F80881E4D1D4F88C211343C4F8A6
:101B14008C31DEE703F5A674C3F84841D5E7DAF85B
:101B24000000FFF7BFFF4FF0FF30DCE73804002070
:101B34007C1B0008F8B500BFF8BC08BC9E46704783
:0C1B4400F8B500BFF8BC08BC9E46704716
:101B5000000000000000000001020304060708095D
:101B6000000000000102030402030405060708093F
:101B70000A0B0C0D0E0F10100102000010000020C7
:081B8000591A000809020008CF
:041B8800E50100086B
:101B8C000024F40001000000100000000000000020
:101B9C0000000000FC02002064030020CC030020A5
:101BAC000000000000000000000000000000000029
:101BBC000000000000000000000000000000000019
:101BCC000000000000000000000000000000000009
:101BDC0000000000000000000000000000000000F9
:101BEC0000000000000000000000000000000000E9
:101BFC0000000000000000000000000000000000D9
:101C0C0000000000000000000000000000000000C8
:101C1C0000000000000000000000000000000000B8
:101C2C0000000000000000000000000000000000A8
:101C3C000000000000000000010000000000000097
:101C4C000E33CDAB34126DE6ECDE05000B0000005C
:101C5C000000000000000000000000000000000078
:101C6C000000000000000000000000000000000068
:101C7C000000000000000000000000000000000058
:101C8C000000000000000000000000000000000048
:0C1FBC000000000000000000EC04002009
:0400000508000225C8
:00000001FF
